:1000000012C06DC020C01FC01EC01DC01CC01BC0C0
:10001000B4C019C018C017C016C015C014C013C092
:1000200012C011C010C011241FBECFE5D4E0DEBF46
:10003000CDBF10E0A0E6B0E001C01D92A236B1072E
:10004000E1F70FD0B0C0DCCFA8980895A998089523
:10005000A89A0895A99A089515BA089583E085BBD2
:10006000089585B7826085BF85B7816085BF8BB7EE
:1000700080648BBF789482E08EBD84B3836084BB40
:1000800085B3836085BB11BA15BA88EB9BE029E183
:1000900030E0F9013197F1F70197D9F783E085BB9B
:1000A00064ED70E32AEF30E048EA51E6F4E0E1E085
:1000B0008399FECFCB010197F1F7839905C0C90160
:1000C0000197F1F7839BFBCF09B600FE05C019BE6F
:1000D000CA010197F1F7ECCFF9BFE2BFF9CF1F9248
:1000E0000F920FB60F9211242F933F938F939F93EC
:1000F0001BBE80E593EC0197F1F780E48BBF209164
:100100006000309161002230310591F123303105DA
:10011000DCF02330310579F12430310531F18BB732
:100120008F738BBF2F5F3F4F309361002093600030
:1001300080E48BBF8ABF9F918F913F912F910F9049
:100140000FBE0F901F9018952115310531F0213009
:10015000310529F719BE15BAE2CFA99884E089BF05
:1001600082EC92EA9DBD8CBDDACFA89AA998D7CF30
:1001700083E085BBD4CF15BAD2CF1F920F920FB6B2
:100180000F9211248F939F9385B38095837085BBC5
:1001900083E09FEA9DBD8CBD9F918F910F900FBE14
:0A01A0000F901F901895F894FFCF00
:00000001FF
