:1000000012C06EC020C01FC01EC01DC0B1C01BC02A
:100010001AC019C018C017C016C015C014C013C02C
:1000200012C011C010C011241FBECFE5D4E0DEBF46
:10003000CDBF10E0A0E6B0E001C01D92A436B1072C
:10004000E1F70FD0BAC0DCCFA8980895A998089519
:10005000A89A0895A99A089515BA089583E085BBD2
:10006000089585B785BF85B7816085BF8BB78064EC
:100070008BBF78941FBC8AE08EBD84B3876084BB3D
:1000800085B3876085BB80E092EA9BBD8ABD11BACB
:1000900015BA88EB9BE029E130E0F9013197F1F7DF
:1000A0000197D9F783E085BB48EA51E62AEF30E0B3
:1000B00061E070E0E0E18399FECFCA010197F1F7BA
:1000C000839905C0C9010197F1F7839BFBCF7DBDE3
:1000D0006CBD89B78E2789BFCA010197F1F7EBCFB5
:1000E0001F920F920FB60F9211242F933F938F936D
:1000F0009F9384ED90E30197F1F7829B17C019BE9F
:1001000020916000309161002230310521F12330CF
:100110003105BCF42115310519F121303105F1F01B
:100120002F5F3F4F309361002093600080E48ABFCF
:100130009F918F913F912F910F900FBE0F901F9025
:1001400018952330310551F02430310549F7A89A2C
:10015000A9981BBEE5CF83E085BBE2CF15BAE0CFFF
:1001600089B780E189BF81E090E09DBD8CBDD8CF8B
:100170001F920F920FB60F9211242F933F938F93DC
:100180009F9325B385B330E02170307090E082708A
:1001900090702817390721F485B391E0892785BB32
:1001A00085B393E0892785BB9F918F913F912F91D4
:0E01B0000F900FBE0F901F901895F894FFCF80
:00000001FF
