:100000000C9434000C943E000C943E000C943E0082
:100010000C943E000C943E000C943E000C943E0068
:100020000C943E000C943E000C943E000C943E0058
:100030000C943E000C943E000C943E000C943E0048
:100040000C943E000C943E000C943E000C943E0038
:100050000C943E000C943E000C943E000C943E0028
:100060000C943E000C943E0011241FBECFEFD8E04C
:10007000DEBFCDBF0E9440000C9459000C940000DC
:10008000E4E2F0E0808182608083E5E2F0E060E11C
:1000900077E249E150E08081826080839B01CA0160
:1000A0000197F1F721503040D1F780818D7F808317
:0600B000F2CFF894FFCF2F
:00000001FF
