:100000000C9434000C943E000C943E000C943E0082
:100010000C943E000C943E000C943E000C943E0068
:100020000C943E000C943E000C943E000C943E0058
:100030000C943E000C943E000C943E000C943E0048
:100040000C943E000C943E000C943E000C943E0038
:100050000C943E000C943E000C943E000C943E0028
:100060000C943E000C943E0011241FBECFEFD8E04C
:10007000DEBFCDBF0E9440000C9457000C940000DE
:10008000E4E2F0E080818E608083EAE2F0E080814B
:100090008F668083E5E2F0E080818C608083EBE214
:1000A000F0E080818862808380E090E00895F89499
:0200B000FFCF80
:00000001FF
