:100000000C9434000C943E000C943E000C943E0082
:100010000C943E000C943E000C943E000C943E0068
:100020000C943E000C943E000C943E000C943E0058
:100030000C943E000C943E000C943E000C943E0048
:100040000C943E000C943E000C943E000C943E0038
:100050000C943E000C943E000C943E000C943E0028
:100060000C943E000C943E0011241FBECFEFD8E04C
:10007000DEBFCDBF0E9440000C9471000C940000C4
:10008000E4E2F0E080818E608083EAE2F0E080814B
:100090008FEF8083E7E2F0E0808182608083ABE2D3
:1000A000B0E0E8E2F0E060E177E249E150E08C9115
:1000B0008F6D8C938081826080839B01CA01019740
:1000C000F1F721503040D1F78C918F798C9380815A
:1000D00010829B01CA010197F1F721503040D1F7FE
:0600E000E6CFF894FFCF0B
:00000001FF
