:100000000C9434000C9451000C9451000C944F0447
:100010000C9451000C94CA030C9451000C945100A0
:100020000C9451000C9451000C9451000C9451000C
:100030000C9451000C9451000C9451000C945100FC
:100040000C9451000C9451000C9451000C945100EC
:100050000C9451000C9451000C9451000C945100DC
:100060000C9451000C94510011241FBECFEFD8E026
:10007000DEBFCDBF12E0A0E0B1E0E2E3F7E102C0F5
:1000800005900D92AC32B107D9F712E0ACE2B2E0C4
:1000900001C01D92AA33B107E1F70E9453000C94EE
:1000A000970B0C940000EF92FF920F931F93CF9346
:1000B000DF93EAE2F0E0808181628083E5E2F0E0B4
:1000C0008081816B80830E94F0020E948801789475
:1000D0000E94F002C0E0D0E00BE210E0EE24FF242A
:1000E000CE010E94BD010E94AB01C3972CF0F80124
:1000F00080818E7F808304C0F8018081816080834D
:100100002196C630D10564F3E701EACFEAE2F0E0D8
:10011000808188668083E4E2F0E080818E60808365
:10012000E4E4F0E08081836A8083E5E4F0E08081AC
:1001300081608083EEE6F0E0808183608083E0E888
:10014000F0E08081816A8083E1E8F0E0808189606D
:100150008083E0EBF0E08081836A8083E1EBF0E074
:1001600080818160808308956115710519F487BDD0
:1001700018BC08956130710511F488BD17BC08954D
:100180006115710549F4909389008093880010925D
:100190008B0010928A0008956130710541F49093AC
:1001A0008B0080938A001092890010928800089535
:1001B000EBE2F0E080818064808380818F7D8083AA
:1001C000E5E2F0E08081897F80830895E5E2F0E058
:1001D00080818260808380818B7F8083EBE2F0E08E
:1001E00080818F7980830895E5E2F0E080818860E6
:1001F0008083ABE2B0E08C9188608C9380818B7FB0
:1002000080838081826080838C918F7D8C938C91A0
:1002100080648C930895E5E2F0E0808188608083BB
:10022000ABE2B0E08C9188608C9380818D7F80837D
:100230008081846080838C918F7B8C938C91806291
:100240008C930895E5E2F0E08081897F8083EBE282
:10025000F0E080818F7980830895EBE2F0E0808187
:100260008160808320EA3FE049E150E0CA010197C4
:10027000F1F721503040D1F7EBE2F0E080818E7F42
:10028000808320EA3FE049E150E0CA010197F1F79D
:1002900021503040D1F7EBE2F0E080818160808333
:1002A00020EA3FE049E150E0CA010197F1F721500F
:1002B0003040D1F7EBE2F0E080818E7F808320EA4E
:1002C0003FE049E150E0CA010197F1F72150304089
:1002D000D1F7EBE2F0E080818160808320EA3FE0AB
:1002E00049E150E0CA010197F1F721503040D1F7C0
:1002F000EBE2F0E080818E7F808320EA3FE049E1FD
:1003000050E0CA010197F1F721503040D1F708952C
:1003100017B88FE380937E0081E880937A00ECE742
:10032000F0E08081806280830895EAE7F0E08081D8
:1003300080618083089520917A0030E03295229583
:100340002F7023273F702327209530952170307020
:10035000822F932F08951F93EAE7F0E08081806455
:1003600080830E949B01892BE1F7109179000E9404
:100370009501812F90E01F9108958630910518F422
:10038000806280937C000895EF92FF920F931F93F9
:10039000CF93DF9300E010E0C0E0D0E00F2EF5E354
:1003A000EF2EF2E0FF2EF02D0E94AB01282FCE01A0
:1003B00065E070E00E94390BF701E80FF91F208318
:1003C000020F111D2196CA30D10571F7C8016AE0EC
:1003D00070E00E94390B862F972FDF91CF911F91EC
:1003E0000F91FF90EF9008958F929F92AF92BF92DE
:1003F000CF92DF92EF92FF920F931F93CF93DF93F1
:100400000E94C40190E0AA2797FDA095BA2FBC01D5
:10041000CD010E9492085B016C0128E431EE4AEBA9
:100420005EE30E9432081816B4F5C0E0D1E08824DB
:100430009924E880F9800A811B81C601B501A801D1
:1004400097010E9462088823F4F4C601B501A8014F
:1004500097010E9486077B018C01F401EE0FFF1FBC
:10046000E85EFE4F60817181882777FD8095982F27
:100470000E9492089B01AC01C801B7010E948C0642
:10048000E62F692F0CC00894811C911C249685E0EE
:100490008816910471F6E0E070E080E060E0562F8D
:1004A0006E2F952FDF91CF911F910F91FF90EF90BD
:1004B000DF90CF90BF90AF909F908F900895AF92B4
:1004C000BF92CF92DF92EF92FF920F931F930F2E66
:1004D000F1E3EF2EF2E0FF2EF02DF701B291A291A1
:1004E000929182918F01F70180839183A283B383DC
:1004F0000E94F4015B016C01F801608371838283C7
:100500009383F70160817181828193812AEF3DEEAF
:100510004BE659EB0E9486079B01AC01C601B50171
:100520000E945F061F910F91FF90EF90DF90CF9098
:10053000BF90AF9008958630910528F060E070E09C
:1005400080E090E004C00E94BD010E94F401089583
:1005500084E090E00E94BD010E94F401089585E0CE
:1005600090E00E94BD010E94F4010E94F0089B01EE
:10057000AC01862F932F089508955A9B03C021E064
:1005800030E005C08BB190E09C0121703070822F6B
:10059000932F08958BB12BB130E0329522952F70B7
:1005A00023273F70232721703070822F932F0895C7
:1005B000089508957894E8E6F0E08081856080836E
:1005C000EBE2F0E0808186618083EBE6F0E0808101
:1005D000816B8083EDE6F0E08081866980830895F9
:1005E000EBE2F0E080818160808320E137E249E145
:1005F00050E0CA010197F1F721503040D1F7EBE20A
:10060000F0E080818E7F808320E137E249E150E095
:10061000CA010197F1F721503040D1F70895AF9208
:10062000BF92CF92DF92EF92FF920F931F93CF93DF
:10063000DF935B016C0179018A010E942E060E9402
:10064000F008EB01CB010196039728F40E94F40017
:1006500020E030E02CC0C601B501A80197010E943E
:10066000320818169CF0C801B701A60195010E9436
:100670002E060E94F008372F862F932F99231CF403
:10068000909581959F4F03976CF40FC0BE01DD23B9
:100690001CF4709561957F4F6330710534F00E94B2
:1006A000E600FDCF0E94D800FDCF21E030E0822F90
:1006B000932FDF91CF911F910F91FF90EF90DF90DB
:1006C000CF90BF90AF900895EF92FF920F931F933A
:1006D000DF93CF93CDB7DEB760970FB6F894DEBF48
:1006E0000FBECDBFFE01319680E1DF011D928A95DC
:1006F000E9F780E090E00E949B0269837A838B8314
:100700009C8381E090E00E949B026D837E838F83B7
:10071000988782E090E00E949B0269877A878B87A6
:100720009C8783E090E00E949B026D877E878F8785
:10073000988BE980FA800B811C81C801B70120E009
:1007400030E040EF51E40E946208882364F06D813C
:100750007E818F81988520E030E040EF51E40E9457
:100760006208882344F42D813E814F815885C80159
:10077000B7010E940F0380E090E060960FB6F894F6
:10078000DEBF0FBECDBFCF91DF911F910F91FF90C4
:10079000EF9008951F920F920FB60F9211242F938E
:1007A0003F934F935F936F937F938F939F93AF93F9
:1007B000BF93EF93FF930E942D014C9B1BC00E949F
:1007C0000B0120E335E749E150E0CA010197F1F759
:1007D00021503040D1F70E94E60020E335E749E19F
:1007E00050E0CA010197F1F721503040D1F70E9443
:1007F000F4003DC04A9B1FC00E9422010E942D01AF
:100800000E94F40020E137E249E150E0CA0101977B
:10081000F1F721503040D1F70E94E60020E23EE49B
:1008200049E150E0CA010197F1F721503040D1F77A
:100830000E94F4001CC0499B1AC00E94F40020E1F1
:1008400037E249E150E0CA010197F1F72150304009
:10085000D1F70E94D80020E23EE449E150E0CA010D
:100860000197F1F721503040D1F70E94F4008091B8
:100870002C02882311F00E94D2041BBAFF91EF9141
:10088000BF91AF919F918F917F916F915F914F91A8
:100890003F912F910F900FBE0F901F9018951F92B0
:1008A0000F920FB60F9211242F933F934F935F93A4
:1008B0006F937F938F939F93AF93BF93EF93FF9328
:1008C00088E893E10197F1F7189B02C00E94E600C7
:1008D0001C9B02C00E94D8001C9B08C00E940B01F8
:1008E00081E080932C0280E10E94D3041D9B08C00C
:1008F0000E94F40081E080932C0280E20E94D304E5
:100900001BBAFF91EF91BF91AF919F918F917F9112
:100910006F915F914F913F912F910F900FBE0F906C
:100920001F901895EAE2F0E080818260808389E17F
:100930008093C4001092C00088EE8093C10086E8C6
:100940008093C2000895982FE0ECF0E0808185FF4D
:10095000FDCF9093C6000895982FE0ECF0E08081E1
:1009600085FFFDCF9093C6000895E0ECF0E0808114
:100970008823ECF78091C6000895FC0180818111E5
:10098000FFCF0895181619064CF46AE070E00E9433
:10099000390B862F972F18161906BCF381E60E9493
:1009A000AC0408950895E3E2F0E0282F332727FDF3
:1009B0003095808190E082239323892BD1F70E9488
:1009C00064030895A0E0B0E0E8EEF4E00C94600B5E
:1009D000DC012B01FA019C91923008F439C1EB0142
:1009E0008881823008F433C1943069F4843009F08E
:1009F0002FC111969C9111978981981709F428C1EC
:100A0000A4E2B1E025C1843009F421C18230A9F407
:100A1000923009F01DC19A01AD0188E0EA01099008
:100A2000AE01E90109929E018150C1F7E20189817D
:100A300011969C918923818308C1923009F407C1E2
:100A400012962D903C901397EB018A819B8114960E
:100A5000AD90BD90CD90DC901797EC80FD800E811D
:100A60001F819101281B390BB90137FF04C066278C
:100A70007727621B730B603271050CF061C0121690
:100A800013066CF537014801062E04C0969487942E
:100A9000779467940A94D2F721E030E040E050E088
:100AA00004C0220F331F441F551F6A95D2F72150EF
:100AB0003040404050402E213F21402351232115FA
:100AC00031054105510521F021E030E040E050E0E2
:100AD00079018A01E628F728082919293CC0232B27
:100AE000D1F1260E371E35014601062E04C096941C
:100AF0008794779467940A94D2F721E030E040E03D
:100B000050E004C0220F331F441F551F6A95D2F7CF
:100B100021503040404050402A213B214C215D2152
:100B2000211531054105510521F021E030E040E07B
:100B300050E059016A01A628B728C828D9280BC057
:100B4000821593052CF01C01AA24BB24650103C067
:100B5000EE24FF24870111969C91D20111968C916D
:100B6000981709F445C0992339F0A80197012A196B
:100B70003B094C095D0906C0A60195012E193F09E4
:100B8000400B510B57FD08C011823382228224830F
:100B90003583468357831DC081E08183338222825F
:100BA00088279927DC01821B930BA40BB50B848348
:100BB0009583A683B7830DC0220F331F441F551F93
:100BC000248335834683578382819381019793835E
:100BD00082832481358146815781DA01C9010197D9
:100BE000A109B1098F5F9F4FAF4FBF4328F30BC0DF
:100BF000918333822282EA0CFB1C0C1D1D1DE482B2
:100C0000F5820683178383E08083248135814681C2
:100C1000578157FF1AC0C901AA2797FDA095BA2F7F
:100C200081709070A070B070569547953795279554
:100C3000822B932BA42BB52B84839583A683B78318
:100C400082819381019693838283DF0101C0D20167
:100C5000CD01CDB7DEB7E2E10C947C0BA0E2B0E0B1
:100C6000E4E3F6E00C946C0B69837A838B839C83BA
:100C70002D833E834F835887E9E0EE2EF12CEC0E56
:100C8000FD1ECE010196B7010E94680A8E010F5E1B
:100C90001F4FCE010596B8010E94680A8A8991E02B
:100CA00089278A8BC701B801AE01475E5F4F0E945A
:100CB000E2040E949309A096E6E00C94880BA0E25F
:100CC000B0E0E5E6F6E00C946C0B69837A838B83E5
:100CD0009C832D833E834F835887F9E0EF2EF12CC0
:100CE000EC0EFD1ECE010196B7010E94680A8E012E
:100CF0000F5E1F4FCE010596B8010E94680AC7011A
:100D0000B801AE01475E5F4F0E94E2040E94930962
:100D1000A096E6E00C94880BA0E2B0E0E2E9F6E0F1
:100D20000C94600B69837A838B839C832D833E8331
:100D30004F835887CE010196BE01675F7F4F0E94A7
:100D4000680ACE010596BE016F5E7F4F0E94680A59
:100D50009985923088F089898230C8F0943019F4EE
:100D6000823051F404C0843029F4923081F484E25A
:100D700091E0C6C0923049F420E09A858A899813A0
:100D800021E02A87CE010996BBC0823049F420E0D9
:100D90009A858A89981321E02A8BCE014196B0C0AA
:100DA0002D843E844F8458886D887E888F88988CE7
:100DB000EE24FF248701AA24BB24650140E050E013
:100DC00060E070E0E0E0F0E0C10181709070892B9C
:100DD000E9F0E60CF71C081D191D9A01AB012A0D5C
:100DE0003B1D4C1D5D1D80E090E0A0E0B0E0E614EE
:100DF000F7040805190520F481E090E0A0E0B0E0D8
:100E0000BA01A901480F591F6A1F7B1FAA0CBB1CFE
:100E1000CC1CDD1C97FE08C081E090E0A0E0B0E0B3
:100E2000A82AB92ACA2ADB2A3196E032F10549F00C
:100E3000660C771C881C991C569447943794279409
:100E4000C3CFFA85EA892B893C898B859C85280F3D
:100E5000391F2E5F3F4F17C0CA0181709070892BD8
:100E600061F016950795F794E79480E090E0A0E094
:100E7000B0E8E82AF92A0A2B1B2B76956795579537
:100E800047952F5F3F4F77FDE7CF0CC0440F551FAD
:100E9000661F771F17FD4160EE0CFF1C001F111F1E
:100EA00021503040403090E0590790E0690790E4CD
:100EB000790760F32B8F3C8FDB01CA018F7790702D
:100EC000A070B07080349105A105B10561F447FDB3
:100ED0000AC0E114F1040105110529F0405C5F4FDF
:100EE0006F4F7F4F40781A8EFE1711F081E08A8F86
:100EF0004D8F5E8F6F8F78A383E0898FCE014996E7
:100F00000E949309A096E2E10C947C0BA8E1B0E06A
:100F1000ECE8F7E00C94680B69837A838B839C83FD
:100F20002D833E834F835887B9E0EB2EF12CEC0ED6
:100F3000FD1ECE010196B7010E94680A8E010F5E68
:100F40001F4FCE010596B8010E94680A29852230FC
:100F500008F47EC03989323010F4B8017CC08A852B
:100F60009A8989278A87243011F0223031F4231797
:100F700009F06EC064E271E06EC0343039F41D8651
:100F80001E861F86188A1C861B8604C0323021F4F8
:100F900084E08987B7015FC02B853C858B899C895C
:100FA000281B390B3C872B87ED84FE840F8518891D
:100FB000AD88BE88CF88D88CEA14FB040C051D05CB
:100FC00040F4EE0CFF1C001F111F215030403C87E5
:100FD0002B8720E030E040E050E080E090E0A0E0AF
:100FE000B0E460E070E0EA14FB040C051D0540F07D
:100FF000282B392B4A2B5B2BEA18FB080C091D09FF
:10100000B695A79597958795EE0CFF1C001F111FAD
:101010006F5F7F4F6F31710531F7DA01C9018F774B
:101020009070A070B07080349105A105B10561F495
:1010300027FD0AC0E114F1040105110529F0205C27
:101040003F4F4F4F5F4F20782D873E874F87588BFC
:10105000BE01675F7F4FCB010E9493096896EAE06B
:101060000C94840BA8E1B0E0E8E3F8E00C946C0B7E
:1010700069837A838B839C832D833E834F83588738
:1010800089E0E82EF12CEC0EFD1ECE010196B70191
:101090000E94680A8E010F5E1F4FCE010596B801AF
:1010A0000E94680A8985823040F08989823028F060
:1010B000C701B8010E94E00A01C08FEF6896E6E020
:1010C0000C94880BA8E1B0E0E8E6F8E00C946C0B17
:1010D00069837A838B839C832D833E834F835887D8
:1010E00089E0E82EF12CEC0EFD1ECE010196B70131
:1010F0000E94680A8E010F5E1F4FCE010596B8014F
:101100000E94680A8985823040F08989823028F0FF
:10111000C701B8010E94E00A01C081E06896E6E0DC
:101120000C94880BA8E0B0E0E8E9F8E00C94690BB7
:101130009B01AC0183E08983DA01C9018827B7FDEF
:1011400083959927AA27BB27B82E2115310541057C
:10115000510519F482E089833AC08823A9F0203030
:1011600080E0380780E0480780E8580729F460E00D
:1011700070E080E09FEC30C0EE24FF248701E21A8B
:10118000F30A040B150B02C079018A018EE1C82E07
:10119000D12CDC82CB82ED82FE820F831887C801BE
:1011A000B7010E94440901971816190684F4082E05
:1011B00004C0EE0CFF1C001F111F0A94D2F7ED8231
:1011C000FE820F831887C81AD90ADC82CB82BA82C2
:1011D000CE0101960E9493092896E9E00C94850BB4
:1011E000ACE0B0E0E6EFF8E00C94700B69837A8332
:1011F0008B839C83CE010196BE016B5F7F4F0E9463
:10120000680A8D81823061F1823050F1843021F49E
:101210008E81882351F12EC02F81388537FD20C063
:101220006E812F3131051CF06623F9F023C08EE169
:1012300090E0821B930B29853A854B855C8504C021
:1012400056954795379527958A95D2F76623B1F03D
:1012500050954095309521953F4F4F4F5F4F0EC0B1
:1012600020E030E040E050E009C02FEF3FEF4FEFCB
:101270005FE704C020E030E040E050E8B901CA0177
:101280002C96E2E00C948C0BEF92FF920F931F933D
:101290007B018C0180E0E81680E0F80681E0080719
:1012A00080E0180788F48FEFE816F10401051105B6
:1012B00031F028F088E090E0A0E0B0E017C080E0D6
:1012C00090E0A0E0B0E012C080E0E81680E0F80610
:1012D00080E0080781E0180728F088E190E0A0E0AE
:1012E000B0E004C080E190E0A0E0B0E020E230E0B7
:1012F00040E050E0281B390B4A0B5B0B04C01695ED
:101300000795F794E7948A95D2F7F701E45DFE4FCD
:101310008081281B310941095109C9011F910F9191
:10132000FF90EF900895DF92EF92FF920F931F933B
:10133000FC01E480F58006811781D18080818230B4
:1013400048F480E090E0A0E1B0E0E82AF92A0A2B16
:101350001B2BA5C0843009F49FC0823021F4EE24F9
:10136000FF24870105C0E114F1040105110519F4FA
:10137000E0E0F0E096C0628173819FEF6238790708
:101380000CF05BC022E83FEF261B370B2A313105FA
:101390002CF020E030E040E050E02AC0B801A70186
:1013A000022E04C076956795579547950A94D2F713
:1013B00081E090E0A0E0B0E004C0880F991FAA1F70
:1013C000BB1F2A95D2F70197A109B1098E219F2150
:1013D000A023B1230097A105B10521F081E090E0A1
:1013E000A0E0B0E09A01AB01282B392B4A2B5B2BF4
:1013F000DA01C9018F779070A070B07080349105C8
:10140000A105B10539F427FF09C0205C3F4F4F4FBC
:101410005F4F04C0215C3F4F4F4F5F4FE0E0F0E073
:101420002030A0E03A07A0E04A07A0E45A0710F0F5
:10143000E1E0F0E079018A0127C06038710564F5C8
:10144000FB01E158FF4FD801C7018F779070A07062
:10145000B07080349105A105B10539F4E7FE0DC0E7
:1014600080E490E0A0E0B0E004C08FE390E0A0E072
:10147000B0E0E80EF91E0A1F1B1F17FF05C01695E6
:101480000795F794E794319687E016950795F794BA
:10149000E7948A95D1F705C0EE24FF248701EFEF8A
:1014A000F0E06E2F679566276795902F9F77D7940A
:1014B000DD24D7948E2F8695492F462B582F5D29F2
:1014C000B701CA011F910F91FF90EF90DF9008952F
:1014D000FC01DB01408151812281622F6F7770E036
:1014E000221F2227221F9381892F880F822B282FCA
:1014F00030E0991F9927991F11969C9311972115F8
:101500003105A9F5411551056105710511F482E018
:1015100037C082E89FEF13969C938E9312979A019F
:10152000AB0167E0220F331F441F551F6A95D1F7A7
:1015300083E08C930DC0220F331F441F551F12965A
:101540008D919C911397019713969C938E9312976C
:10155000203080E0380780E0480780E4580758F3DF
:1015600014962D933D934D935C93179708952F3FB9
:10157000310579F4411551056105710519F484E0CF
:101580008C93089564FF03C081E08C9312C01C9279
:1015900010C02F57304013963C932E93129783E040
:1015A0008C9387E0440F551F661F771F8A95D1F7EC
:1015B000706414964D935D936D937C931797089583
:1015C0001F93DC01FB019C91923008F447C080819D
:1015D000823008F443C0943051F411961C91843049
:1015E00099F58181682F70E0611B71093FC08430DB
:1015F00021F0923031F48230B9F18181882389F170
:101600002DC011961C9111978230F1F0818118172D
:10161000D9F412962D913C91139782819381821770
:10162000930794F028173907BCF014968D919D917B
:101630000D90BC91A02D24813581468157812817BA
:1016400039074A075B0718F4112341F00AC08217D3
:101650009307A407B50740F4112319F061E070E087
:1016600005C06FEF7FEF02C060E070E0CB011F911B
:10167000089597FB092E07260AD077FD04D00CD0D9
:1016800006D000201AF4709561957F4F0895F6F703
:10169000909581959F4F0895AA1BBB1B51E107C0F0
:1016A000AA1FBB1FA617B70710F0A61BB70B881FF2
:1016B000991F5A95A9F780959095BC01CD01089581
:1016C0002F923F924F925F926F927F928F929F9252
:1016D000AF92BF92CF92DF92EF92FF920F931F9340
:1016E000CF93DF93CDB7DEB7CA1BDB0B0FB6F894F1
:1016F000DEBF0FBECDBF09942A88398848885F8431
:101700006E847D848C849B84AA84B984C884DF80A1
:10171000EE80FD800C811B81AA81B981CE0FD11D85
:101720000FB6F894DEBF0FBECDBFED010895F8945B
:02173000FFCFE9
:00000001FF
