:100000000C9434000C9451000C9451000C9418037F
:100010000C9451000C9481020C9451000C945100EA
:100020000C9451000C9451000C9451000C9451000C
:100030000C9451000C9451000C9451000C945100FC
:100040000C9451000C9451000C9451000C945100EC
:100050000C9451000C9451000C9451000C945100DC
:100060000C9451000C94510011241FBECFEFD8E026
:10007000DEBFCDBF12E0A0E0B1E0EAE7F5E102C0EB
:1000800005900D92AC32B107D9F712E0ACE2B2E0C4
:1000900001C01D92A933B107E1F70E9472000C94D0
:1000A000BB0A0C940000EBE2F0E080818160808369
:1000B00020E137E249E150E0CA010197F1F7215010
:1000C0003040D1F7EBE2F0E080818E7F808320E149
:1000D00037E249E150E0CA010197F1F72150304081
:1000E000D1F708950F931F93CF93DF93EAE2F0E0E7
:1000F0008081816280830E9453000E94A3000E943D
:1001000027010E94710200E21EE4C9E1D0E00E94D2
:10011000EE009801CE010197F1F721503040D1F760
:100120000E94E0009801CE010197F1F72150304084
:10013000D1F70E94D2009801CE010197F1F721502A
:100140003040D1F7E4CFEAE2F0E080818866808336
:10015000E4E2F0E080818E6080830895611571058E
:1001600019F487BD18BC08956130710511F488BD7C
:1001700017BC08956115710549F490938900809327
:10018000880010928B0010928A00089561307105EA
:1001900041F490938B0080938A0010928900109212
:1001A00088000895E5E2F0E08081826080838081AC
:1001B0008B7F8083EBE2F0E080818F7980830895EC
:1001C000EBE2F0E080818064808380818F7D80839A
:1001D000E5E2F0E08081897F80830895E5E2F0E048
:1001E000808188608083ABE2B0E08C9188608C93E2
:1001F00080818B7F80838081826080838C918F7DE2
:100200008C938C9180648C930895E5E2F0E080817A
:1002100088608083ABE2B0E08C9188608C938081B1
:100220008D7F80838081846080838C918F7B8C9391
:100230008C9180628C930895E5E2F0E08081897F63
:100240008083EBE2F0E080818F798083089582E003
:1002500087B981E880937A000895EAE7F0E0808129
:1002600080618083089520917A0030E03295229554
:100270002F7023273F7023272095309521703070F1
:10028000822F932F08951F93EAE7F0E08081806426
:1002900080830E943301892BE1F7109179000E943D
:1002A0002D01812F90E01F910895863028F48062FF
:1002B00080937C000E9443010895EF92FF920F9378
:1002C0001F93CF93DF9300E010E0C0E0D0E00F2E4B
:1002D000F4E3EF2EF2E0FF2EF02D0E944301282FD1
:1002E000CE0165E070E00E945D0AF701E80FF91F9A
:1002F0002083020F111D2196CA30D10571F7C80164
:100300006AE070E00E945D0A862F972FDF91CF91FF
:100310001F910F91FF90EF9008958F929F92AF924F
:10032000BF92CF92DF92EF92FF920F931F93CF93E2
:10033000DF930E945D0190E0AA2797FDA095BA2F58
:10034000BC01CD010E94B6075B016C0128E431EECF
:100350004AEB5EE30E9456071816B4F5C0E0D1E000
:1003600088249924E880F9800A811B81C601B5019F
:10037000A80197010E9486078823F4F4C601B501FD
:10038000A80197010E94AA067B018C01F401EE0FDF
:10039000FF1FE85EFE4F60817181882777FD8095A1
:1003A000982F0E94B6079B01AC01C801B7010E94BB
:1003B000B005E62F692F0CC00894811C911C24966F
:1003C00085E08816910471F6E0E070E080E060E07E
:1003D000562F6E2F952FDF91CF911F910F91FF9088
:1003E000EF90DF90CF90BF90AF909F908F90089547
:1003F000AF92BF92CF92DF92EF92FF920F931F9333
:100400000F2EF0E3EF2EF2E0FF2EF02DF701B29168
:10041000A291929182918F01F70180839183A283AF
:10042000B3830E948D015B016C01F80160837183CD
:1004300082839383F70160817181828193812AEFA6
:100440003DEE4BE659EB0E94AA069B01AC01C601AA
:10045000B5010E9483051F910F91FF90EF90DF90EF
:10046000CF90BF90AF9008958630910528F060E05E
:1004700070E080E090E004C00E9455010E948D0170
:10048000089584E00E9455010E948D01089585E041
:100490000E9455010E948D010E9414089B01AC012D
:1004A000862F932F089508955A9B03C021E030E0D2
:1004B00005C08BB190E09C0121703070822F932F8A
:1004C00008958BB12BB130E0329522952F70232700
:1004D0003F70232721703070822F932F0895089545
:1004E0000895E8E6F0E0808185608083EBE6F0E047
:1004F0008081816B8083EDE6F0E080818669808376
:1005000008951F920F920FB60F9211242F933F93CD
:100510004F935F936F937F938F939F93AF93BF930B
:10052000EF93FF930E941C010E945300599B1AC035
:100530000E94050120E137E249E150E0CA0101973C
:10054000F1F721503040D1F70E94E00020E23EE474
:1005500049E150E0CA010197F1F721503040D1F74D
:100560000E94EE005A9B1AC00E94050120E137E26A
:1005700049E150E0CA010197F1F721503040D1F72D
:100580000E94D20020E23EE449E150E0CA01019716
:10059000F1F721503040D1F70E94EE005C9B1AC069
:1005A0000E94EE0020E137E249E150E0CA010197E4
:1005B000F1F721503040D1F70E94E00020E23EE404
:1005C00049E150E0CA010197F1F721503040D1F7DD
:1005D0000E94EE008BB18823D4F40E94EE0020E14B
:1005E00037E249E150E0CA010197F1F7215030406C
:1005F000D1F70E94D20020E23EE449E150E0CA0176
:100600000197F1F721503040D1F70E94EE00FF91A1
:10061000EF91BF91AF919F918F917F916F915F917A
:100620004F913F912F910F900FBE0F901F901895F3
:100630001F920F920FB60F9211242F933F934F9357
:100640005F936F937F938F939F93AF93BF93EF933A
:10065000FF93289B02C00E94E0002C9B02C00E94D6
:10066000D20085B1882314F40E9405012D9B02C09D
:100670000E94EE00FF91EF91BF91AF919F918F91FA
:100680007F916F915F914F913F912F910F900FBE8E
:100690000F901F901895AF92BF92CF92DF92EF927A
:1006A000FF920F931F93CF93DF935B016C0179014E
:1006B0008A010E9452050E941408EB01CB010196A9
:1006C000039728F40E94EE0020E030E02CC0C60121
:1006D000B501A80197010E94560718169CF0C801A1
:1006E000B701A60195010E9452050E941408372FF8
:1006F000862F932F99231CF4909581959F4F0397F4
:100700006CF40FC0BE01DD231CF4709561957F4F22
:100710006330710534F00E94E000FDCF0E94D200EA
:10072000FDCF21E030E0822F932FDF91CF911F91F9
:100730000F91FF90EF90DF90CF90BF90AF90089512
:10074000EF92FF920F931F93DF93CF93CDB7DEB756
:1007500060970FB6F894DEBF0FBECDBFFE01319695
:1007600080E1DF011D928A95E9F780E090E00E9428
:10077000340269837A838B839C8381E090E00E94BA
:1007800034026D837E838F83988782E090E00E949D
:10079000340269877A878B879C8783E090E00E9488
:1007A00034026D877E878F87988BE980FA800B8172
:1007B0001C81C801B70120E030E040EF51E40E9405
:1007C0008607882364F06D817E818F81988520E083
:1007D00030E040EF51E40E948607882344F42D81E5
:1007E0003E814F815885C801B7010E944B0380E0CC
:1007F00090E060960FB6F894DEBF0FBECDBFCF91EC
:10080000DF911F910F91FF90EF900895A0E0B0E06D
:10081000ECE0F4E00C94840ADC012B01FA019C91D9
:10082000923008F439C1EB018881823008F433C179
:10083000943069F4843009F02FC111969C9111977E
:100840008981981709F428C1A4E2B1E025C1843058
:1008500009F421C18230A9F4923009F01DC19A0136
:10086000AD0188E0EA010990AE01E90109929E011B
:100870008150C1F7E201898111969C91892381837E
:1008800008C1923009F407C112962D903C9013973D
:10089000EB018A819B811496AD90BD90CD90DC9048
:1008A0001797EC80FD800E811F819101281B390B69
:1008B000B90137FF04C066277727621B730B6032CC
:1008C00071050CF061C0121613066CF53701480172
:1008D000062E04C096948794779467940A94D2F76E
:1008E00021E030E040E050E004C0220F331F441FFD
:1008F000551F6A95D2F721503040404050402E217C
:100900003F2140235123211531054105510521F097
:1009100021E030E040E050E079018A01E628F72844
:10092000082919293CC0232BD1F1260E371E350189
:100930004601062E04C096948794779467940A948F
:10094000D2F721E030E040E050E004C0220F331F36
:10095000441F551F6A95D2F7215030404040504007
:100960002A213B214C215D212115310541055105ED
:1009700021F021E030E040E050E059016A01A62872
:10098000B728C828D9280BC0821593052CF01C0164
:10099000AA24BB24650103C0EE24FF24870111961D
:1009A0009C91D20111968C91981709F445C0992316
:1009B00039F0A80197012A193B094C095D0906C0C5
:1009C000A60195012E193F09400B510B57FD08C098
:1009D00011823382228224833583468357831DC04C
:1009E00081E081833382228288279927DC01821B60
:1009F000930BA40BB50B84839583A683B7830DC09B
:100A0000220F331F441F551F24833583468357838A
:100A100082819381019793838283248135814681EA
:100A20005781DA01C9010197A109B1098F5F9F4F71
:100A3000AF4FBF4328F30BC0918333822282EA0C6D
:100A4000FB1C0C1D1D1DE482F5820683178383E0C9
:100A50008083248135814681578157FF1AC0C9019F
:100A6000AA2797FDA095BA2F81709070A070B070E2
:100A70005695479537952795822B932BA42BB52B0D
:100A800084839583A683B783828193810196938320
:100A90008283DF0101C0D201CD01CDB7DEB7E2E133
:100AA0000C94A00AA0E2B0E0E8E5F5E00C94900A0E
:100AB00069837A838B839C832D833E834F835887FE
:100AC000E9E0EE2EF12CEC0EFD1ECE010196B701F1
:100AD0000E948C098E010F5E1F4FCE010596B80152
:100AE0000E948C098A8991E089278A8BC701B80105
:100AF000AE01475E5F4F0E9406040E94B708A096B1
:100B0000E6E00C94AC0AA0E2B0E0E9E8F5E00C9471
:100B1000900A69837A838B839C832D833E834F83E2
:100B20005887F9E0EF2EF12CEC0EFD1ECE01019658
:100B3000B7010E948C098E010F5E1F4FCE010596F2
:100B4000B8010E948C09C701B801AE01475E5F4F32
:100B50000E9406040E94B708A096E6E00C94AC0A36
:100B6000A0E2B0E0E6EBF5E00C94840A69837A83B6
:100B70008B839C832D833E834F835887CE010196C0
:100B8000BE01675F7F4F0E948C09CE010596BE01B2
:100B90006F5E7F4F0E948C099985923088F0898919
:100BA0008230C8F0943019F4823051F404C084309B
:100BB00029F4923081F484E291E0C6C0923049F485
:100BC00020E09A858A89981321E02A87CE01099628
:100BD000BBC0823049F420E09A858A89981321E0CD
:100BE0002A8BCE014196B0C02D843E844F84588814
:100BF0006D887E888F88988CEE24FF248701AA2434
:100C0000BB24650140E050E060E070E0E0E0F0E02F
:100C1000C10181709070892BE9F0E60CF71C081D6A
:100C2000191D9A01AB012A0D3B1D4C1D5D1D80E075
:100C300090E0A0E0B0E0E614F7040805190520F400
:100C400081E090E0A0E0B0E0BA01A901480F591F8F
:100C50006A1F7B1FAA0CBB1CCC1CDD1C97FE08C0A6
:100C600081E090E0A0E0B0E0A82AB92ACA2ADB2AF5
:100C70003196E032F10549F0660C771C881C991C0E
:100C80005694479437942794C3CFFA85EA892B89E1
:100C90003C898B859C85280F391F2E5F3F4F17C0DD
:100CA000CA0181709070892B61F016950795F794B1
:100CB000E79480E090E0A0E0B0E8E82AF92A0A2B67
:100CC0001B2B76956795579547952F5F3F4F77FD7F
:100CD000E7CF0CC0440F551F661F771F17FD4160FB
:100CE000EE0CFF1C001F111F21503040403090E0DF
:100CF000590790E0690790E4790760F32B8F3C8FE8
:100D0000DB01CA018F779070A070B07080349105BC
:100D1000A105B10561F447FD0AC0E114F104010524
:100D2000110529F0405C5F4F6F4F7F4F40781A8E5E
:100D3000FE1711F081E08A8F4D8F5E8F6F8F78A341
:100D400083E0898FCE0149960E94B708A096E2E120
:100D50000C94A00AA8E1B0E0E0EBF6E00C948C0A59
:100D600069837A838B839C832D833E834F8358874B
:100D7000B9E0EB2EF12CEC0EFD1ECE010196B70171
:100D80000E948C098E010F5E1F4FCE010596B8019F
:100D90000E948C092985223008F47EC039893230BE
:100DA00010F4B8017CC08A859A8989278A87243003
:100DB00011F0223031F4231709F06EC064E271E0C3
:100DC0006EC0343039F41D861E861F86188A1C8634
:100DD0001B8604C0323021F484E08987B7015FC0EC
:100DE0002B853C858B899C89281B390B3C872B875D
:100DF000ED84FE840F851889AD88BE88CF88D88C95
:100E0000EA14FB040C051D0540F4EE0CFF1C001F4A
:100E1000111F215030403C872B8720E030E040E01C
:100E200050E080E090E0A0E0B0E460E070E0EA1420
:100E3000FB040C051D0540F0282B392B4A2B5B2B9E
:100E4000EA18FB080C091D09B695A7959795879593
:100E5000EE0CFF1C001F111F6F5F7F4F6F3171057C
:100E600031F7DA01C9018F779070A070B0708034CB
:100E70009105A105B10561F427FD0AC0E114F10453
:100E80000105110529F0205C3F4F4F4F5F4F20783F
:100E90002D873E874F87588BBE01675F7F4FCB0101
:100EA0000E94B7086896EAE00C94A80AA8E1B0E0AE
:100EB000ECE5F7E00C94900A69837A838B839C833A
:100EC0002D833E834F83588789E0E82EF12CEC0E6A
:100ED000FD1ECE010196B7010E948C098E010F5EA6
:100EE0001F4FCE010596B8010E948C09898582307A
:100EF00040F08989823028F0C701B8010E94040AB5
:100F000001C08FEF6896E6E00C94AC0AA8E1B0E06F
:100F1000ECE8F7E00C94900A69837A838B839C83D6
:100F20002D833E834F83588789E0E82EF12CEC0E09
:100F3000FD1ECE010196B7010E948C098E010F5E45
:100F40001F4FCE010596B8010E948C098985823019
:100F500040F08989823028F0C701B8010E94040A54
:100F600001C081E06896E6E00C94AC0AA8E0B0E02D
:100F7000ECEBF7E00C948D0A9B01AC0183E08983D4
:100F8000DA01C9018827B7FD83959927AA27BB27CE
:100F9000B82E211531054105510519F482E08983E8
:100FA0003AC08823A9F0203080E0380780E0480765
:100FB00080E8580729F460E070E080E09FEC30C0E2
:100FC000EE24FF248701E21AF30A040B150B02C07A
:100FD00079018A018EE1C82ED12CDC82CB82ED8290
:100FE000FE820F831887C801B7010E946808019725
:100FF0001816190684F4082E04C0EE0CFF1C001FFE
:10100000111F0A94D2F7ED82FE820F831887C81A47
:10101000D90ADC82CB82BA82CE0101960E94B7083F
:101020002896E9E00C94A90AACE0B0E0EAE1F8E027
:101030000C94940A69837A838B839C83CE010196F6
:10104000BE016B5F7F4F0E948C098D81823061F100
:10105000823050F1843021F48E81882351F12EC0EA
:101060002F81388537FD20C06E812F3131051CF06E
:101070006623F9F023C08EE190E0821B930B298553
:101080003A854B855C8504C05695479537952795DD
:101090008A95D2F76623B1F0509540953095219509
:1010A0003F4F4F4F5F4F0EC020E030E040E050E038
:1010B00009C02FEF3FEF4FEF5FE704C020E030E0C3
:1010C00040E050E8B901CA012C96E2E00C94B00A65
:1010D000EF92FF920F931F937B018C0180E0E81643
:1010E00080E0F80681E0080780E0180788F48FEFB9
:1010F000E816F1040105110531F028F088E090E0D0
:10110000A0E0B0E017C080E090E0A0E0B0E012C046
:1011100080E0E81680E0F80680E0080781E0180724
:1011200028F088E190E0A0E0B0E004C080E190E029
:10113000A0E0B0E020E230E040E050E0281B390BB6
:101140004A0B5B0B04C016950795F794E7948A95B4
:10115000D2F7F701E45DFE4F8081281B3109410978
:101160005109C9011F910F91FF90EF900895DF92EF
:10117000EF92FF920F931F93FC01E480F5800681AC
:101180001781D1808081823048F480E090E0A0E136
:10119000B0E0E82AF92A0A2B1B2BA5C0843009F4F9
:1011A0009FC0823021F4EE24FF24870105C0E114A2
:1011B000F1040105110519F4E0E0F0E096C0628148
:1011C00073819FEF623879070CF05BC022E83FEF34
:1011D000261B370B2A3131052CF020E030E040E0AF
:1011E00050E02AC0B801A701022E04C07695679589
:1011F000579547950A94D2F781E090E0A0E0B0E0DF
:1012000004C0880F991FAA1FBB1F2A95D2F7019708
:10121000A109B1098E219F21A023B1230097A10527
:10122000B10521F081E090E0A0E0B0E09A01AB01CF
:10123000282B392B4A2B5B2BDA01C9018F77907051
:10124000A070B07080349105A105B10539F427FF75
:1012500009C0205C3F4F4F4F5F4F04C0215C3F4FA0
:101260004F4F5F4FE0E0F0E02030A0E03A07A0E011
:101270004A07A0E45A0710F0E1E0F0E079018A01A2
:1012800027C06038710564F5FB01E158FF4FD801B4
:10129000C7018F779070A070B07080349105A10560
:1012A000B10539F4E7FE0DC080E490E0A0E0B0E0C5
:1012B00004C08FE390E0A0E0B0E0E80EF91E0A1F42
:1012C0001B1F17FF05C016950795F794E7943196F5
:1012D00087E016950795F794E7948A95D1F705C0AE
:1012E000EE24FF248701EFEFF0E06E2F679566276D
:1012F0006795902F9F77D794DD24D7948E2F86956E
:10130000492F462B582F5D29B701CA011F910F9114
:10131000FF90EF90DF900895FC01DB014081518147
:101320002281622F6F7770E0221F2227221F938174
:10133000892F880F822B282F30E0991F9927991F1A
:1013400011969C93119721153105A9F54115510569
:101350006105710511F482E037C082E89FEF1396B2
:101360009C938E9312979A01AB0167E0220F331F73
:10137000441F551F6A95D1F783E08C930DC0220F4F
:10138000331F441F551F12968D919C9113970197FF
:1013900013969C938E931297203080E0380780E05C
:1013A000480780E4580758F314962D933D934D93C6
:1013B0005C93179708952F3F310579F44115510536
:1013C0006105710519F484E08C93089564FF03C0EE
:1013D00081E08C9312C01C9210C02F57304013969E
:1013E0003C932E93129783E08C9387E0440F551F14
:1013F000661F771F8A95D1F7706414964D935D939D
:101400006D937C93179708951F93DC01FB019C91CA
:10141000923008F447C08081823008F443C0943091
:1014200051F411961C91843099F58181682F70E0F8
:10143000611B71093FC0843021F0923031F4823059
:10144000B9F18181882389F12DC011961C911197E2
:101450008230F1F081811817D9F412962D913C91C8
:101460001397828193818217930794F02817390785
:10147000BCF014968D919D910D90BC91A02D24816E
:10148000358146815781281739074A075B0718F4C9
:10149000112341F00AC082179307A407B50740F44F
:1014A000112319F061E070E005C06FEF7FEF02C01B
:1014B00060E070E0CB011F91089597FB092E07268D
:1014C0000AD077FD04D00CD006D000201AF4709515
:1014D00061957F4F0895F6F7909581959F4F0895F8
:1014E000AA1BBB1B51E107C0AA1FBB1FA617B7074A
:1014F00010F0A61BB70B881F991F5A95A9F7809566
:101500009095BC01CD0108952F923F924F925F922A
:101510006F927F928F929F92AF92BF92CF92DF9203
:10152000EF92FF920F931F93CF93DF93CDB7DEB768
:10153000CA1BDB0B0FB6F894DEBF0FBECDBF0994FC
:101540002A88398848885F846E847D848C849B8453
:10155000AA84B984C884DF80EE80FD800C811B8161
:10156000AA81B981CE0FD11D0FB6F894DEBF0FBE90
:0A157000CDBFED010895F894FFCF00
:00000001FF
