:1000000012C02CC02BC02AC029C028C027C026C0BF
:1000100025C024C023C022C021C020C01FC01EC0D4
:100020001DC01CC01BC011241FBECFE5D4E0DEBF25
:10003000CDBF10E0A0E6B0E0E6E6F1E002C005903A
:100040000D92A636B107D9F710E0A6E6B0E001C0E0
:100050001D92A636B107E1F723D084C0D1CF89E144
:1000600089B91BB88AB188618AB988EF8AB980E8F2
:1000700080BD86E880BD08955D9BFECF8CB9089554
:10008000CF93DF93EC018881F7DF8881882329F003
:10009000F3DF898121968823D9F7DF91CF910895E5
:1000A000CF93DF9319D082E082BB80E699E0D7DF5F
:1000B000C0E6D0E022D088EA91E60197F1F781E628
:1000C000DBDFCE01DDDF5E9BFECF5E9912D088EADA
:1000D00091E60197F1F7EECF87B3876087BB88B3CE
:1000E000876088BB8F9A979A0895C0980895C198A1
:1000F000089597980895C09A0895979A0895C19A77
:10010000089518BA089583E088BB0895F2DF28E8BF
:1001100033E189E190E00197F1F721503040C9F7D0
:10012000ECDF28E833E189E190E00197F1F7215015
:100130003040C9F708950F931F93DBDF00E513EC00
:10014000C8010197F1F7D9DFC8010197F1F7D1DFB5
:10015000C8010197F1F7D1DFC8010197F1F71F91AD
:060160000F910895FFCF8E
:00000001FF
