:1000000012C019C018C017C016C015C014C013C044
:1000100012C011C010C00FC00EC00DC00CC00BC06C
:100020000AC009C008C011241FBECFE5D4E0DEBF5E
:10003000CDBF1DD0B9C0E4CF89E189B9A0E4B0E05B
:100040001C921C921BB8EAE2F0E0808188618083F8
:1000500088EF808380E88C9386E88C930895982FAE
:10006000EBE2F0E0808185FFFDCF9CB90895EF922F
:10007000FF920F931F93CF93DF932AD082E082BB2E
:1000800080E699E0D9DF0F2EF8E9EF2EFAE3FF2E94
:10009000F02DC9E1D0E00BE210E047D09701CE018E
:1000A0000197F1F721503040D1F781E6D8DFF80110
:1000B000808186FFFCCF808186FD02C0C70102C01F
:1000C00028D0C701FE013197F1F7019731F3FACF3C
:1000D000E7E3F0E0808187608083E8E3F0E08081FF
:1000E00087608083E1E3F0E0808180688083E2E3E1
:1000F000F0E08081806880830895E8E3F0E080810B
:100100008E7F80830895E8E3F0E080818D7F808397
:100110000895E2E3F0E080818F7780830895E8E33B
:10012000F0E08081816080830895E2E3F0E08081E7
:10013000806880830895E8E3F0E0808182608083B6
:10014000089518BA089583E088BB0895E2DF28E88F
:1001500033E149E150E0CA010197F1F72150304005
:10016000D1F7E3DF28E833E149E150E0CA01019724
:10017000F1F721503040D1F708950F931F93C9DF55
:1001800000E513ECC8010197F1F7CFDFC801019733
:10019000F1F7BFDFC8010197F1F7C7DFC801019789
:0C01A000F1F71F910F910895F894FFCF24
:00000001FF
