:1000000012C05AC02BC02AC029C028C028C026C090
:1000100025C024C023C022C021C020C01FC01EC0D4
:100020001DC01CC01BC011241FBECFE5D4E0DEBF25
:10003000CDBF10E0A0E6B0E0ECE4F3E002C0059034
:100040000D92A437B107D9F710E0A4E7B0E001C0E2
:100050001D92AC37B107E1F75CD076C1D1CF1F92CA
:100060000F920FB60F9211242F933F938F939F936C
:10007000EF93FF93E5E3F0E02081808130E0217091
:10008000307090E0827090702817390721F48081D9
:1000900091E089278083E5E3F0E0808193E0892780
:1000A0008083FF91EF919F918F913F912F910F90BE
:1000B0000FBE0F901F9018951F920F920FB60F92C0
:1000C00011242F933F934F935F936F937F938F935D
:1000D0009F93AF93BF93EF93FF9384ED90E30197CA
:1000E000F1F7829B02C06CD001C076D080E48ABF59
:1000F000FF91EF91BF91AF919F918F917F916F9100
:100100005F914F913F912F910F900FBE0F901F90D5
:100110001895CF92DF92EF92FF920F931F93CF9398
:10012000DF93E5E5F0E080818083808181608083DA
:10013000EBE5F0E080818064808378941FBC8AE0E6
:100140008EBDE4E3F0E0808187608083E5E3F0E04A
:1001500080818760808380E092EA9BBD8ABD11BA6E
:100160008CE090E04AD044D088EB9BE029E130E07D
:10017000F9013197F1F70197D9F73CD0C0E3D0E00E
:100180000F2EF4EDCF2EF0E3DF2EF02D0AEF10E06E
:100190000F2EF0E6EF2EF0E0FF2EF02D888183FD8C
:1001A000FDCFC6010197F1F7888183FD06C0C80124
:1001B0000197F1F7888183FFFACFC70147D0EECFCF
:1001C000E5E3F0E080818E7F80830895E5E3F0E051
:1001D00080818D7F80830895E5E3F0E080818160F8
:1001E00080830895E5E3F0E0808182608083089554
:1001F00015BA089583E085BB089589B9E0E4F0E07D
:1002000090838CE88083EAE2F0E0808188618083DB
:100210000895982FEBE2F0E0808185FFFDCF9CB937
:100220000895EBE2F0E080818823ECF78CB108952B
:10023000CF93DF93EC018881882329F02196E9DFB1
:1002400088818823D9F7DF91CF910895F1DF80E786
:1002500090E0EEDF089580E287B984E886B90895DA
:10026000E6E2F0E0808180648083089526B130E08A
:10027000329522952F7023273F70232720953095A4
:1002800021703070822F932F0895E6E2F0E0808194
:100290008061808308951F93E3DFE8DF892BE9F70E
:1002A00015B1F3DF812F1F9108950F931F9308E776
:1002B00010E0B8014AE050E004D0C8011F910F914E
:1002C0000895FB019F01E8944230BCF04532ACF444
:1002D0004A3029F497FB1EF4909581959F4F642F27
:1002E00077271ED0805D8A330CF0895D8193CB0126
:1002F0000097A9F716F45DE251931082C90100C07E
:10030000DC01FC01672F71917723E1F7329704C07C
:100310007C916D9370836291AE17BF07C8F3089507
:10032000AA1BBB1B51E107C0AA1FBB1FA617B7071B
:1003300010F0A61BB70B881F991F5A95A9F7809537
:0C0340009095BC01CD010895F894FFCF0A
:00000001FF
