:1000000012C02CC02BC02AC029C028C027C026C0BF
:1000100025C024C023C022C021C020C01FC01EC0D4
:100020001DC01CC01BC011241FBECFE5D4E0DEBF25
:10003000CDBF12E0A0E6B0E0EAEBF5E002C005902B
:100040000D92A636B107D9F712E0A6E6B2E001C0DC
:100050001D92AD37B107E1F702D0ADC2D1CF0F93FA
:100060001F93CF93DF9321D1C3D180EC92E187D04E
:100070001AD06ED081E090E09BBD8ABDC1E6D0E091
:1000800088E604ED10E397D0C8010197F1F7899154
:100090008823C9F7EBE2F0E02CE732E98081C9015F
:1000A0000197F1F7FBCFE7E3F0E080818760808381
:1000B000E8E3F0E0808187608083E1E3F0E0808125
:1000C00080688083E2E3F0E0808180688083089527
:1000D000E8E3F0E080818E7F80830895E8E3F0E03C
:1000E00080818D7F80830895E2E3F0E080818F77C7
:1000F00080830895E8E3F0E0808181608083089543
:10010000E2E3F0E08081806880830895E8E3F0E036
:10011000808182608083089518BA089583E088BB47
:100120000895E2DF28E833E149E150E0CA01019790
:10013000F1F721503040D1F7E3DF28E833E149E11E
:1001400050E0CA010197F1F721503040D1F70895EE
:100150000F931F93C9DF00E513ECC8010197F1F776
:10016000CFDFC8010197F1F7BFDFC8010197F1F7B1
:10017000C7DFC8010197F1F71F910F9108959C0106
:10018000220F331F220F331F220F331F40E050E096
:1001900060E472E48FE090E0A9D12150304029B9A9
:1001A000E0E4F0E0308386EA8083EAE2F0E08081F8
:1001B000886180830895982FEBE2F0E0808185FFCD
:1001C000FDCF9CB90895982FEBE2F0E0808185FF88
:1001D000FDCF9CB90895EBE2F0E080818823ECF735
:1001E0008CB108951F93CF93DF93EC011816190675
:1001F000B4F410E3CE016AE070E065D11816190678
:1002000014F0812F01C0805DD6DFCE016AE070E07E
:100210005AD1862F972FEC011C161D065CF3DF9137
:10022000CF911F9108950F931F93CF93DF938C016C
:1002300078DFC0E0D0E007C0F8018081992787FD12
:100240009095B9DF2196A02FB12FFD0101900020DC
:10025000E9F73197EA1BFB0BCE17DF0768F386E659
:1002600090E0992787FD9095A6DF88E690E0992792
:1002700087FD9095A0DFDF91CF911F910F91089599
:100280000F931F93982FEBE2F0E0808185FFFDCF65
:10029000892F90E000E010E0B80141E050E05CD12F
:1002A000C801C1DF1F910F91089514BA80EC87B97E
:1002B000E6E2F0E081E88083808180648083808151
:1002C00086FDFDCF0895E6E2F0E0808180648083C2
:1002D000089526B130E0329522952F7023273F7084
:1002E00023272095309521703070822F932F089509
:1002F000E6E2F0E08081806180830895A6E6B2E0C6
:10030000FD01219131913183208315963C932E93E9
:10031000149717963C932E93169719963C932E9309
:1003200018978C9311961C92820F820F820F820F66
:1003300065E0BDD008951F93C6DFCBDF892BE9F7B9
:1003400015B1D6DF812FDADF1F91089580E090E0AC
:100350000895FC01EE0FFF1FE659FF4F8081918148
:1003600008950F931F93E7DF90E0F3DF8C019093E4
:1003700071028093700284ED90E30197F1F7DBDF67
:1003800090E0E7DF9093730280937202801B910BE1
:1003900069E07EEF98D0862F972F1F910F910895D7
:1003A000EF92FF920F931F93DF93CF93CDB7DEB7FA
:1003B0002A970FB6F894DEBF0FBECDBF7B018E012A
:1003C0000F5F1F4FB8014AE050E0C6D0C701B80127
:1003D0004AE050E0C1D02A960FB6F894DEBF0FBEB7
:1003E000CDBFCF91DF911F910F91FF90EF900895B6
:1003F00027E330E0F9018081826080838081816021
:100400008083EFE4F0E0808189608083A9E5B0E03B
:100410008C9184618C938081806C80831BBC1ABC1E
:100420001DBC1CBCEEE4F0E0808181608083808193
:10043000897F8083F9018081826080830895AC0187
:100440008091740290917502841795078CF48091C5
:1004500076029091770223E08F3F920719F48FEF95
:1004600093E001C00596909377028093760211C0C5
:100470004817590774F4809176029091770200979B
:1004800019F480E090E001C0059790937702809383
:1004900076022FB7F89480917602909177029BBDF7
:1004A0008ABD2FBF50937502409374020895991B23
:1004B00079E004C0991F961708F0961B881F7A955B
:1004C000C9F78095089597FB092E07260AD077FD76
:1004D00004D02ED006D000201AF4709561957F4F7D
:1004E0000895F6F7909581959F4F0895A1E21A2EF1
:1004F000AA1BBB1BFD010DC0AA1FBB1FEE1FFF1FC8
:10050000A217B307E407F50720F0A21BB30BE40B17
:10051000F50B661F771F881F991F1A9469F760955E
:100520007095809590959B01AC01BD01CF01089518
:10053000AA1BBB1B51E107C0AA1FBB1FA617B70709
:1005400010F0A61BB70B881F991F5A95A9F7809525
:100550009095BC01CD010895FB019F01E8944230C4
:10056000BCF04532ACF44A3029F497FB1EF4909568
:1005700081959F4F642F7727DBDF805D8A330CF0F6
:10058000895D8193CB010097A9F716F45DE2519341
:100590001082C90100C0DC01FC01672F7191772333
:1005A000E1F7329704C07C916D9370836291AE172E
:0A05B000BF07C8F30895F894FFCFC9
:00000001FF
