:1000000012C03FC22BC02AC029C028C033C326C09B
:1000100025C024C023C022C021C020C01FC01EC0D4
:100020001DC01CC01BC011241FBECFE5D4E0DEBF25
:10003000CDBF10E0A0E6B0E0EAE4F3E102C0059035
:100040000D92AE37B107D9F710E0AEE7B0E001C0CE
:100050001D92A238B107E1F702D075C9D1CFDF9365
:10006000CF93CDB7DEB7E8970FB6F894DEBF0FBEDB
:10007000CDBFA5E5B0E0E5E5F0E080818C93A5E596
:10008000B0E0E5E5F0E0808181608C93ABE5B0E025
:10009000EBE5F0E0808180648C937894EFE4F0E00D
:1000A0001082EEE4F0E08AE08083A4E3B0E0E4E3D1
:1000B000F0E0808187608C93A5E3B0E0E5E3F0E0B9
:1000C000808187608C93EAE4F0E080E092EA91839B
:1000D0008083E1E3F0E010828CE090E05AD344D3D7
:1000E00080E090E0A6E9B3E48DAB9EABAFABB8AFD8
:1000F0006DA97EA98FA998AD20E030E04AE753E4CE
:100100007ED5DC01CB0189AB9AABABABBCAB69A9AB
:100110007AA98BA99CA920E030E040E85FE3BAD639
:1001200088232CF481E090E098AB8FA73BC069A9AD
:100130007AA98BA99CA920E03FEF4FE757E454D65A
:1001400018163CF56DA97EA98FA998AD20E030E086
:1001500040E251E454D5DC01CB01BC01CD018BD38D
:10016000DC01CB0198AB8FA70FC089E190E09EA77F
:100170008DA78DA59EA50197F1F79EA78DA78FA5A9
:1001800098A9019798AB8FA78FA598A9009769F7B1
:1001900013C069A97AA98BA99CA96DD3DC01CB01F5
:1001A00098AB8FA78FA598A99CA78BA78BA59CA57B
:1001B0000197F1F79CA78BA7E1D2E0E3F0E0808103
:1001C000882F90E0887090700097B9F780E090E0F9
:1001D000A8ECB2E48FA398A7A9A7BAA76FA178A5A6
:1001E00089A59AA520E030E04AE753E408D5DC0170
:1001F000CB018BA39CA3ADA3BEA36BA17CA18DA1BE
:100200009EA120E030E040E85FE344D688232CF450
:1002100081E090E09AA389A33BC06BA17CA18DA152
:100220009EA120E03FEF4FE757E4DED518163CF5DE
:100230006FA178A589A59AA520E030E040E251E4BD
:10024000DED4DC01CB01BC01CD0115D3DC01CB0137
:100250009AA389A30FC089E190E098A38F8F8F8D17
:1002600098A10197F1F798A38F8F89A19AA101977F
:100270009AA389A389A19AA1009769F780C06BA16D
:100280007CA18DA19EA1F7D2DC01CB019AA389A309
:1002900089A19AA19E8F8D8F8D8D9E8D0197F1F7EB
:1002A0009E8F8D8F6CC080E090E0A0E8BFE3898FC7
:1002B0009A8FAB8FBC8F698D7A8D8B8D9C8D20E052
:1002C00030E04AE753E49BD4DC01CB018D8B9E8B5D
:1002D000AF8BB88F6D897E898F89988D20E030E053
:1002E00040E85FE3D7D588232CF481E090E09C8B35
:1002F0008B8B3BC06D897E898F89988D20E03FEF85
:100300004FE757E471D518163CF5698D7A8D8B8DC2
:100310009C8D20E030E040E251E471D4DC01CB015F
:10032000BC01CD01A8D2DC01CB019C8B8B8B0FC013
:1003300089E190E09A8B898B89899A890197F1F7F5
:100340009A8B898B8B899C8901979C8B8B8B8B8952
:100350009C89009769F713C06D897E898F89988D74
:100360008AD2DC01CB019C8B8B8B8B899C89988BEF
:100370008F878F8598890197F1F7988B8F87E0E3B6
:10038000F0E08081882F90E088709070009709F4E9
:100390008ACFA9E5B0E0E9E5F0E0908180E1892726
:1003A0008C9380E090E0A8ECB2E48B879C87AD87CB
:1003B000BE876B857C858D859E8520E030E04AE791
:1003C00053E41DD4DC01CB018F839887A987BA87BA
:1003D0006F81788589859A8520E030E040E85FE389
:1003E00059D588232CF481E090E09E838D833BC017
:1003F0006F81788589859A8520E03FEF4FE757E444
:10040000F3D418163CF56B857C858D859E8520E0A0
:1004100030E040E251E4F3D3DC01CB01BC01CD017B
:100420002AD2DC01CB019E838D830FC089E190E04D
:100430009C838B838B819C810197F1F79C838B83B9
:100440008D819E8101979E838D838D819E810097F2
:1004500069F713C06F81788589859A850CD2DC0194
:10046000CB019E838D838D819E819A83898389812F
:100470009A810197F1F79A83898380E690E0D1D140
:100480009CCE1F920F920FB60F9211242F933F9381
:100490004F935F936F937F938F939F93AF93BF938C
:1004A000EF93FF93DF93CF93CDB7DEB76097DEBFB7
:1004B000CDBF80E090E0A8E4B2E48B879C87AD8755
:1004C000BE876B857C858D859E8520E030E04AE780
:1004D00053E495D3DC01CB018F839887A987BA8732
:1004E0006F81788589859A8520E030E040E85FE378
:1004F000D1D488232CF481E090E09E838D833BC08F
:100500006F81788589859A8520E03FEF4FE757E432
:100510006BD418163CF56B857C858D859E8520E017
:1005200030E040E251E46BD3DC01CB01BC01CD01F2
:10053000A2D1DC01CB019E838D830FC089E190E0C5
:100540009C838B838B819C810197F1F79C838B83A8
:100550008D819E8101979E838D838D819E810097E1
:1005600069F713C06F81788589859A8584D1DC010C
:10057000CB019E838D838D819E819A83898389811E
:100580009A810197F1F79A838983E0E3F0E0808113
:10059000882F90E084709070009709F451C0E9E5CD
:1005A000F0E0108280917E0090917F00988B8F8781
:1005B0008F8598898230910589F18F85988983305C
:1005C000910554F48F859889009789F08F859889D3
:1005D0008130910509F12BC08F8598898330910571
:1005E000F9F08F85988984309105E1F020C0E9E524
:1005F000F0E08081882F90E080719070009709F47E
:1006000089D0E9E5F0E080E18083ECE4F0E081E08E
:1006100090E0918380830BC0A7D009C0AFD007C002
:10062000A3D005C085D076D0EBE5F0E010828091B4
:100630007E0090917F00019690937F0080937E00D2
:10064000EAE5F0E080E480836096DEBFCDBFCF9125
:10065000DF91FF91EF91BF91AF919F918F917F912A
:100660006F915F914F913F912F910F900FBE0F901F
:100670001F9018951F920F920FB60F9211242F936F
:100680003F938F939F93AF93BF93EF93FF93DF932A
:10069000CF93CDB7DEB7E5E3F0E08081882F90E01F
:1006A0009C0121703070E5E3F0E08081882F90E0BC
:1006B000827090702817390741F4A5E3B0E0E5E3B4
:1006C000F0E0908181E089278C93A5E3B0E0E5E339
:1006D000F0E0908183E089278C93CF91DF91FF91A7
:1006E000EF91BF91AF919F918F913F912F910F907B
:1006F0000FBE0F901F901895DF93CF93CDB7DEB745
:10070000A5E3B0E0E5E3F0E080818E7F8C93CF91AC
:10071000DF910895DF93CF93CDB7DEB7A5E3B0E0C7
:10072000E5E3F0E080818D7F8C93CF91DF91089598
:10073000DF93CF93CDB7DEB7A5E3B0E0E5E3F0E01C
:10074000808181608C93CF91DF910895DF93CF9367
:10075000CDB7DEB7A5E3B0E0E5E3F0E080818260ED
:100760008C93CF91DF910895DF93CF93CDB7DEB710
:10077000E5E3F0E01082CF91DF910895DF93CF930E
:10078000CDB7DEB7E5E3F0E083E08083CF91DF9182
:100790000895DF93CF9300D0CDB7DEB79A838983D6
:1007A000E9E2F0E089818083E0E4F0E089819A81E8
:1007B000892F99278083E0E4F0E08CE88083AAE227
:1007C000B0E0EAE2F0E0808188618C930F900F90B6
:1007D000CF91DF910895DF93CF930F92CDB7DEB71E
:1007E0008983EBE2F0E08081882F90E08072907046
:1007F0000097B9F3ECE2F0E0898180830F90CF910C
:10080000DF910895DF93CF93CDB7DEB7EBE2F0E051
:1008100080818823DCF7ECE2F0E08081CF91DF91EA
:100820000895DF93CF9300D000D0CDB7DEB79C837F
:100830008B831A8219820EC029813A818B819C8117
:10084000FC01E20FF31F8081C6DF89819A81019646
:100850009A83898329813A818B819C81FC01E20FF3
:10086000F31F8081882341F70F900F900F900F9016
:10087000CF91DF910895EF92FF920F931F937B0129
:100880008C0120E030E040E05FE4D9D288237CF0A6
:10089000C801B70120E030E040E05FE45ED125D33D
:1008A0009B01AC01205030404040504805C0C80179
:1008B000B7011BD39B01AC01B901CA011F910F9174
:1008C000FF90EF900895A0E0B0E0E8E6F4E004C502
:1008D000DC012B01FA019C91923008F439C1EB0143
:1008E0008881823008F433C1943069F4843009F08F
:1008F0002FC111969C9111978981981709F428C1ED
:10090000A5E7B0E025C1843009F421C18230A9F403
:10091000923009F01DC19A01AD0188E0EA01099009
:10092000AE01E90109929E018150C1F7E20189817E
:1009300011969C918923818308C1923009F407C1E3
:1009400012962D903C901397EB018A819B8114960F
:10095000AD90BD90CD90DC901797EC80FD800E811E
:100960001F819101281B390BB90137FF04C066278D
:100970007727621B730B603271050CF061C0121691
:1009800013066CF537014801062E04C0969487942F
:10099000779467940A94D2F721E030E040E050E089
:1009A00004C0220F331F441F551F6A95D2F72150F0
:1009B0003040404050402E213F21402351232115FB
:1009C00031054105510521F021E030E040E050E0E3
:1009D00079018A01E628F728082919293CC0232B28
:1009E000D1F1260E371E35014601062E04C096941D
:1009F0008794779467940A94D2F721E030E040E03E
:100A000050E004C0220F331F441F551F6A95D2F7D0
:100A100021503040404050402A213B214C215D2153
:100A2000211531054105510521F021E030E040E07C
:100A300050E059016A01A628B728C828D9280BC058
:100A4000821593052CF01C01AA24BB24650103C068
:100A5000EE24FF24870111969C91D20111968C916E
:100A6000981709F445C0992339F0A80197012A196C
:100A70003B094C095D0906C0A60195012E193F09E5
:100A8000400B510B57FD08C0118233822282248310
:100A90003583468357831DC081E081833382228260
:100AA00088279927DC01821B930BA40BB50B848349
:100AB0009583A683B7830DC0220F331F441F551F94
:100AC000248335834683578382819381019793835F
:100AD00082832481358146815781DA01C9010197DA
:100AE000A109B1098F5F9F4FAF4FBF4328F30BC0E0
:100AF000918333822282EA0CFB1C0C1D1D1DE482B3
:100B0000F5820683178383E08083248135814681C3
:100B1000578157FF1AC0C901AA2797FDA095BA2F80
:100B200081709070A070B070569547953795279555
:100B3000822B932BA42BB52B84839583A683B78319
:100B400082819381019693838283DF0101C0D20168
:100B5000CD01CDB7DEB7E2E1DBC3A0E2B0E0E2EB6E
:100B6000F5E0C6C369837A838B839C832D833E83A0
:100B70004F835887E9E0EE2EF12CEC0EFD1ECE01DE
:100B80000196B701D8D28E010F5E1F4FCE01059698
:100B9000B801D1D28A8991E089278A8BC701B8012F
:100BA000AE01475E5F4F8FDEF1D1A096E6E0BCC399
:100BB000A0E2B0E0EDEDF5E09BC369837A838B831F
:100BC0009C832D833E834F835887F9E0EF2EF12CD1
:100BD000EC0EFD1ECE010196B701ADD28E010F5E67
:100BE0001F4FCE010596B801A6D2C701B801AE01CC
:100BF000475E5F4F68DECAD1A096E6E095C3A0E2EB
:100C0000B0E0E4E0F6E068C369837A838B839C8379
:100C10002D833E834F835887CE010196BE01675FC7
:100C20007F4F89D2CE010596BE016F5E7F4F83D282
:100C30009985923088F089898230C8F0943019F40F
:100C4000823051F404C0843029F4923081F485E775
:100C500090E0C6C0923049F420E09A858A899813C2
:100C600021E02A87CE010996BBC0823049F420E0FA
:100C70009A858A89981321E02A8BCE014196B0C0CB
:100C80002D843E844F8458886D887E888F88988C08
:100C9000EE24FF248701AA24BB24650140E050E034
:100CA00060E070E0E0E0F0E0C10181709070892BBD
:100CB000E9F0E60CF71C081D191D9A01AB012A0D7D
:100CC0003B1D4C1D5D1D80E090E0A0E0B0E0E6140F
:100CD000F7040805190520F481E090E0A0E0B0E0F9
:100CE000BA01A901480F591F6A1F7B1FAA0CBB1C20
:100CF000CC1CDD1C97FE08C081E090E0A0E0B0E0D5
:100D0000A82AB92ACA2ADB2A3196E032F10549F02D
:100D1000660C771C881C991C56944794379427942A
:100D2000C3CFFA85EA892B893C898B859C85280F5E
:100D3000391F2E5F3F4F17C0CA0181709070892BF9
:100D400061F016950795F794E79480E090E0A0E0B5
:100D5000B0E8E82AF92A0A2B1B2B76956795579558
:100D600047952F5F3F4F77FDE7CF0CC0440F551FCE
:100D7000661F771F17FD4160EE0CFF1C001F111F3F
:100D800021503040403090E0590790E0690790E4EE
:100D9000790760F32B8F3C8FDB01CA018F7790704E
:100DA000A070B07080349105A105B10561F447FDD4
:100DB0000AC0E114F1040105110529F0405C5F4F00
:100DC0006F4F7F4F40781A8EFE1711F081E08A8FA7
:100DD0004D8F5E8F6F8F78A383E0898FCE01499608
:100DE000D5D0A096E2E194C2A8E1B0E0E9EFF6E048
:100DF0007FC269837A838B839C832D833E834F8359
:100E0000588789E0E82EF12CEC0EFD1ECE010196EC
:100E1000B70191D18E010F5E1F4FCE010596B8012B
:100E20008AD18985823038F08989823020F0C701E3
:100E3000B801F9D101C08FEF6896E6E075C2A8E16C
:100E4000B0E0E4E2F7E054C269837A838B839C8349
:100E50002D833E834F83588789E0E82EF12CEC0EDA
:100E6000FD1ECE010196B70166D18E010F5E1F4FA8
:100E7000CE010596B8015FD18985823038F0898925
:100E8000823020F0C701B801CED101C08FEF689643
:100E9000E6E04AC2A8E1B0E0EFE4F7E029C26983E6
:100EA0007A838B839C832D833E834F83588789E08D
:100EB000E82EF12CEC0EFD1ECE010196B7013BD1C0
:100EC0008E010F5E1F4FCE010596B80134D1898582
:100ED000823038F08989823020F0C701B801A3D16F
:100EE00001C081E06896E6E01FC2ACE0B0E0EAE74E
:100EF000F7E002C269837A838B839C83CE010196DB
:100F0000BE016B5F7F4F17D18D81823061F18230DE
:100F100050F1843021F48E81882351F12EC02F812D
:100F2000388537FD20C06E812F3131051CF06623D6
:100F3000F9F023C08EE190E0821B930B29853A855E
:100F40004B855C8504C056954795379527958A95BE
:100F5000D2F76623B1F050954095309521953F4FDB
:100F60004F4F5F4F0EC020E030E040E050E009C03E
:100F70002FEF3FEF4FEF5FE704C020E030E040E0AD
:100F800050E8B901CA012C96E2E0D2C1DF92EF929B
:100F9000FF920F931F93FC01E480F5800681178177
:100FA000D1808081823048F480E090E0A0E1B0E020
:100FB000E82AF92A0A2B1B2BA5C0843009F49FC00C
:100FC000823021F4EE24FF24870105C0E114F104EE
:100FD0000105110519F4E0E0F0E096C0628173812B
:100FE0009FEF623879070CF05BC022E83FEF261BC9
:100FF000370B2A3131052CF020E030E040E050E0A2
:101000002AC0B801A701022E04C0769567955795AE
:1010100047950A94D2F781E090E0A0E0B0E004C0E8
:10102000880F991FAA1FBB1F2A95D2F70197A10904
:10103000B1098E219F21A023B1230097A105B105FD
:1010400021F081E090E0A0E0B0E09A01AB01282B14
:10105000392B4A2B5B2BDA01C9018F779070A07076
:10106000B07080349105A105B10539F427FF09C09E
:10107000205C3F4F4F4F5F4F04C0215C3F4F4F4FAD
:101080005F4FE0E0F0E02030A0E03A07A0E04A0740
:10109000A0E45A0710F0E1E0F0E079018A0127C0EE
:1010A0006038710564F5FB01E158FF4FD801C701B5
:1010B0008F779070A070B07080349105A105B10554
:1010C00039F4E7FE0DC080E490E0A0E0B0E004C099
:1010D0008FE390E0A0E0B0E0E80EF91E0A1F1B1FAE
:1010E00017FF05C016950795F794E794319687E0AA
:1010F00016950795F794E7948A95D1F705C0EE24E5
:10110000FF248701EFEFF0E06E2F67956627679564
:10111000902F9F77D794DD24D7948E2F8695492FD3
:10112000462B582F5D29B701CA011F910F91FF90DF
:10113000EF90DF900895FC01DB0140815181228115
:10114000622F6F7770E0221F2227221F9381892F41
:10115000880F822B282F30E0991F9927991F11960D
:101160009C93119721153105A9F54115510561058C
:10117000710511F482E037C082E89FEF13969C93CB
:101180008E9312979A01AB0167E0220F331F441F21
:10119000551F6A95D1F783E08C930DC0220F331F42
:1011A000441F551F12968D919C911397019713968A
:1011B0009C938E931297203080E0380780E0480798
:1011C00080E4580758F314962D933D934D935C9308
:1011D000179708952F3F310579F4411551056105A1
:1011E000710519F484E08C93089564FF03C081E0D5
:1011F0008C9312C01C9210C02F57304013963C9312
:101200002E93129783E08C9387E0440F551F661F3F
:10121000771F8A95D1F7706414964D935D936D9303
:101220007C93179708951F93DC01FB019C919230EA
:1012300008F447C08081823008F443C0943051F4F0
:1012400011961C91843099F58181682F70E0611BA3
:1012500071093FC0843021F0923031F48230B9F10D
:101260008181882389F12DC011961C9111978230BC
:10127000F1F081811817D9F412962D913C911397B2
:10128000828193818217930794F028173907BCF065
:1012900014968D919D910D90BC91A02D2481358146
:1012A00046815781281739074A075B0718F411232D
:1012B00041F00AC082179307A407B50740F4112331
:1012C00019F061E070E005C06FEF7FEF02C060E0F1
:1012D00070E0CB011F9108952F923F924F925F9241
:1012E0006F927F928F929F92AF92BF92CF92DF9236
:1012F000EF92FF920F931F93CF93DF93CDB7DEB79B
:10130000CA1BDB0B0FB6F894DEBF0FBECDBF09942E
:101310002A88398848885F846E847D848C849B8485
:10132000AA84B984C884DF80EE80FD800C811B8193
:10133000AA81B981CE0FD11D0FB6F894DEBF0FBEC2
:0A134000CDBFED010895F894FFCF32
:00000001FF
