:1000000012C02CC02BC02AC029C028C027C026C0BF
:1000100025C025C023C022C021C020C01FC01EC0D3
:100020001DC01CC01BC011241FBECFE5D4E0DEBF25
:10003000CDBF11E0A0E6B0E0E8E9F2E102C0059032
:100040000D92AC38B107D9F711E0ACE8B1E001C0CE
:100050001D92A23AB107E1F725D01DC9D1CF1F9259
:100060000F920FB60F9211242F933F934F935F93EC
:100070006F937F938F939F93AF93BF93EF93FF9370
:1000800046D0FF91EF91BF91AF919F918F917F915A
:100090006F915F914F913F912F910F900FBE0F90F5
:1000A0001F9018958FD080EC92E15DD016D085E03E
:1000B00083BF12BE89B7816089BF789489B7816098
:1000C00089BF3AD01BBC1ABC81E65AD05E9BFECFDA
:1000D0008CE792E90197F1F7F7CF87B3876087BB89
:1000E00088B3876088BB8F9A979A0895C0980895BF
:1000F000C198089597980895C09A0895979A089579
:10010000C19A089518BA089583E088BB0895F2DF74
:1001100028E833E189E190E00197F1F72150304080
:10012000C9F7ECDF28E833E189E190E00197F1F7C6
:1001300021503040C9F708950F931F93DBDF00E58E
:1001400013ECC8010197F1F7D9DFC8010197F1F766
:10015000D1DFC8010197F1F7D1DFC8010197F1F7AD
:100160001F910F91089589E189B91BB88AB18861FF
:100170008AB988EF8AB980E880BD86E880BD089595
:100180005D9BFECF8CB908955D9BFECF8CB9089521
:100190005F9BFECF8CB1992787FD90950895FC0158
:1001A000E081EE23F1F70895BC01181619063CF41E
:1001B000CB016AE070E011D816161706CCF381E681
:1001C000E3DF089514BA80EE87B981E886B9369ADC
:1001D0003699FECF089586B190E0929582958F7002
:1001E00089279F70892780959095817090700895D8
:1001F000349A08951F93369AEEDF892BE9F715B1EB
:10020000F7DF812F90E01F91089590919D019093C9
:100210009E0190939F019093A0019093A1018093E0
:100220009D01890F890F890F890F65E0CAD790E07A
:100230000895EF92FF920F931F93CF93DF93CDE931
:10024000D1E000E010E00F2EF2EAEF2EF1E0FF2EF9
:10025000F02DD0DF8993080F111DCE15DF05C9F7EA
:10026000C80165E070E0B9D7CB01DF91CF911F9154
:100270000F91FF90EF90089508958F929F92AF9203
:10028000BF92CF92DF92EF92FF920F931F93CF9383
:10029000DF93B0DFBADF90E0AA2797FDA095BA2FD1
:1002A000BC01CD01C2D45B016C0128E431EE4AEB04
:1002B0005EE359D4181684F5C0E6D0E0882499246A
:1002C000E880F9800A811B81A8019701C601B50168
:1002D0007BD48823CCF4A8019701C601B50193D340
:1002E0007B018C01F401EE0FFF1FE858FF4F608186
:1002F0007181882777FD8095982F97D49B01AC0159
:10030000C801B70186D20CC00894811C911C2496A8
:1003100085E088169104A1F660E070E080E090E04E
:10032000DF91CF911F910F91FF90EF90DF90CF90D1
:10033000BF90AF909F908F900895AF92BF92CF9251
:10034000DF92EF92FF920F931F93E0908C01F09059
:100350008D0100918E0110918F01E0929001F09239
:100360009101009392011093930187DF5B016C016F
:1003700060938C0170938D0180938E0190938F0117
:1003800025E831EB45E859EBC801B7013CD39B01A7
:10039000AC01C601B50116D21F910F91FF90EF90ED
:1003A000DF90CF90BF90AF90089524DF2EDF0895A7
:1003B000EF92FF920F931F93CF93DF93CDB7DEB7EA
:1003C0002A970FB6F894DEBF0FBECDBF7B014AE07F
:1003D00050E08E010F5F1F4FB801C4D64AE050E0D5
:1003E000B801C701BFD62A960FB6F894DEBF0FBE7C
:1003F000CDBFDF91CF911F910F91FF90EF900895A6
:10040000B99AB89A8FB589608FBD89B7846189BF61
:100410008FB5806C8FBD1BBC1ABC1DBC1CBC8EB5BF
:1004200081608EBD8EB5897F8EBDB99A0895AF92D9
:10043000BF92CF92DF92EF92FF920F931F937DDFD7
:100440005B016C016091940170919501882777FDA3
:100450008095982FEAD37B018C019B01AC01C601EA
:10046000B50181D318168CF4809196019091970173
:1004700023E08F3F920719F48FEF93E001C00596B8
:10048000909397018093960115C0A8019701C6012A
:10049000B5019AD3882374F48091960190919701C5
:1004A000009719F480E090E001C0059790939701C0
:1004B000809396012FB7F8948091960190919701BF
:1004C0009BBD8ABD2FBFC601B50109D470939501AC
:1004D000609394011F910F91FF90EF90DF90CF9068
:1004E000BF90AF900895A0E0B0E0E8E7F2E09EC6CC
:1004F0002C015B01FA01DC019C91923008F432C1BD
:10050000EB018881823008F42CC1943071F484307E
:1005100009F028C1F20191818981981709F422C15B
:1005200014E8412E10E0512E1DC1843009F419C188
:100530008230A9F4923009F015C1CA01A20128E065
:10054000DA010D90AD01EC010992CE012150C1F705
:10055000E5018981E20199818923818300C192307B
:1005600009F4FFC0E201CA80DB80EB018A819B8134
:10057000E2012C813D814E815F81EB01EC80FD80A9
:100580000E811F81B601681B790BDB0177FF03C069
:10059000709561957F4F603271050CF05DC01A1641
:1005A0001B065CF566247724430181E090E0A0E01F
:1005B000B0E0062E04C0880F991FAA1FBB1F0A9423
:1005C000D2F70197A109B1098E219F21A023B12360
:1005D0000097A105B10529F0B1E06B2E712C812C9B
:1005E000912C04C016950795F794E7946A95D2F775
:1005F000E628F728082919293BC0AB2BC9F1C60EFC
:10060000D71E66247724430181E090E0A0E0B0E0AB
:10061000062E04C0880F991FAA1FBB1F0A94D2F789
:100620000197A109B10982239323A423B52300973D
:10063000A105B10529F0A1E06A2E712C812C912C25
:1006400004C056954795379527956A95D2F7262980
:100650003729482959290CC08C159D0534F06C01A7
:1006600020E030E040E050E003C0EE24FF248701AA
:10067000E2019981E5018981981709F443C0992322
:1006800039F0E21AF30A040B150BA801970104C014
:100690002E193F09400B510B57FD08C01182D38220
:1006A000C28224833583468357831DC081E08183C2
:1006B000D382C28288279927DC01821B930BA40B6B
:1006C000B50B84839583A683B7830DC0220F331F98
:1006D000441F551F2483358346835783828193812A
:1006E0000197938382832481358146815781DA0182
:1006F000C9010197A109B1098F5F9F4FAF4FBF4358
:1007000028F30BC09183D382C2822E0D3F1D401F60
:10071000511F248335834683578383E0808324815C
:100720003581468157815523D4F4C901AA2797FD05
:10073000A095BA2F81709070A070B07056954795B3
:1007400037952795822B932BA42BB52B84839583E8
:10075000A683B783828193810196938382832F013D
:1007600001C02501C201E0E1CDB7DEB77BC5A0E243
:10077000B0E0ECEBF3E064C569837A838B839C8300
:100780002D833E834F83588709E0E02EF12CEC0E39
:10079000FD1EB701CE0101961FD48E010F5E1F4FC3
:1007A000B801CE01059618D48A8991E089278A8BF1
:1007B000AE01475E5F4FB801C70195DE2DD3E6E07D
:1007C000A0965AC5A0E2B0E0E7EEF3E039C5698330
:1007D0007A838B839C832D833E834F83588789E064
:1007E000E82EF12CEC0EFD1EB701CE010196F4D3DC
:1007F0008E010F5E1F4FB801CE010596EDD3AE01FD
:10080000475E5F4FB801C7016EDE06D3E6E0A096F3
:1008100033C5A0E2B0E0EEE0F4E008C569837A8376
:100820008B839C832D833E834F83588799E0E92EE9
:10083000F12CEC0EFD1EB701CE010196CDD38E0139
:100840000F5E1F4FB801CE010596C6D39985923031
:1008500088F089898230C0F0943019F4823029F010
:1008600009C0843029F4923079F464E870E0C6C09D
:10087000923041F420E09A858A89981321E02A87F2
:10088000B701BCC0823041F420E09A858A89981370
:1008900021E02A8BB801B2C0CD84DE84EF84F888D1
:1008A0000D891E892F89388D88249924540140E0B0
:1008B00050E060E070E0442455243201E0E0F0E0D4
:1008C000C60181709070892BD9F0800E911EA21EF6
:1008D000B31EDB01CA01840D951DA61DB71D40E0A6
:1008E00050E060E070E080169106A206B30620F4A6
:1008F00041E050E060E070E0480F591F6A1F7B1F25
:10090000440C551C661C771C37FF08C081E090E042
:10091000A0E0B0E0482A592A6A2A7B2A3196E032C0
:10092000F10549F0000F111F221F331FF694E794C1
:10093000D794C794C5CF8B899C892B853C85820F22
:10094000931F02969C8F8B8F1A8E9A858A8998178F
:1009500011F081E08A8F2B8D3C8D17C0CA01817008
:100960009070892B61F0B694A7949794879480E057
:1009700090E0A0E0B0E8882A992AAA2ABB2A7695B6
:100980006795579547952F5F3F4F77FDE7CFC90193
:100990000BC0440F551F661F771FB7FC4160880CC2
:1009A000991CAA1CBB1C01974030A0E05A07A0E08C
:1009B0006A07A0E47A0768F39C8F8B8FDB01CA017A
:1009C0008F779070A070B07080349105A105B1054B
:1009D00061F447FD0AC081149104A104B10429F017
:1009E000405C5F4F6F4F7F4F40784D8F5E8F6F8FB2
:1009F00078A383E0898FBE01675E7F4FCB010CD265
:100A0000E0E1A0962FC4A8E1B0E0E8E0F5E014C46E
:100A100069837A838B839C832D833E834F8358879E
:100A20008E01075F1F4FB801CE010196D5D281E13B
:100A3000E82EF12CEC0EFD1EB701CE010596CCD2AE
:100A400039853230F8F02989223010F4B70186C098
:100A50008A859A8989278A87343011F0323029F4BF
:100A6000321781F464E870E079C0243039F41D86CF
:100A70001E861F86188A1C861B8604C0223021F41D
:100A800084E08987B8016AC06B857C858B899C89E5
:100A9000681B790B7C876B872D853E854F85588930
:100AA0008D899E89AF89B88D281739074A075B075A
:100AB00040F4220F331F441F551F615070407C8744
:100AC0006B87A12CB12CC12C10E4D12EEE24FF2475
:100AD000870160E070E0281739074A075B0740F09C
:100AE000EA28FB280C291D29281B390B4A0B5B0B14
:100AF000D694C794B794A794220F331F441F551F51
:100B00006F5F7F4F6F31710531F7D801C7018F7764
:100B10009070A070B07080349105A105B105B9F452
:100B2000E7FC15C0211531054105510581F080E430
:100B300090E0A0E0B0E0E80EF91E0A1F1B1F80E85D
:100B40009FEFAFEFBFEFE822F9220A231B23ED86C8
:100B5000FE860F87188BBE01675F7F4FCB015CD18C
:100B6000EAE0689685C3A8E1B0E0E8EBF5E068C389
:100B700069837A838B839C832D833E834F8358873D
:100B800089E0E82EF12CEC0EFD1EB701CE01019696
:100B900023D28E010F5E1F4FB801CE0105961CD2E5
:100BA0008985823058F08989823040F0B801C701C8
:100BB00083D2282F332727FD309502C02FEF3FEF38
:100BC000C901E6E0689658C3A8E1B0E0E9EEF5E0B7
:100BD00037C369837A838B839C832D833E834F83C2
:100BE000588789E0E82EF12CEC0EFD1EB701CE01EE
:100BF0000196F2D18E010F5E1F4FB801CE0105960E
:100C0000EBD18985823058F08989823040F0B80173
:100C1000C70152D2282F332727FD309502C021E08B
:100C200030E0C901E6E0689627C3A8E0B0E0EAE159
:100C3000F6E003C39B01AC0183E08983DA01C901BB
:100C40008827B7FD83959927AA27BB27B82E21159A
:100C500031054105510519F482E0898339C08823A3
:100C6000A9F0203080E0380780E0480780E8580786
:100C700029F460E070E080E09FEC2EC0EE24FF24B9
:100C80008701E21AF30A040B150B02C079018A01ED
:100C90008EE1C82ED12CDC82CB82ED82FE820F83C6
:100CA0001887C801B7016BD001971816190684F48C
:100CB000082E04C0EE0CFF1C001F111F0A94D2F76F
:100CC000ED82FE820F831887C81AD90ADC82CB8294
:100CD000BA82CE010196A0D0E9E02896CAC2ACE063
:100CE000B0E0E4E7F6E0B0C269837A838B839C834B
:100CF000BE016B5F7F4FCE0101966ED18D81823038
:100D0000A9F1823098F1843021F48E81882359F43E
:100D10000FC02F81388537FD29C06E812F313105F5
:100D200064F0662329F020E030E040E050E822C083
:100D30002FEF3FEF4FEF5FE71DC08EE190E0821B8A
:100D4000930B29853A854B855C8504C0569547955C
:100D5000379527958A95D2F7662361F0509540958F
:100D6000309521953F4F4F4F5F4F04C020E030E05A
:100D700040E050E0CA01B901E2E02C9681C2EF9256
:100D8000FF920F931F939B01AC01203080E0380746
:100D900081E0480780E0580780F42F3F3105410586
:100DA000510509F020F4EE24FF24870119C068E002
:100DB000E62EF12C012D112D13C0203080E03807D4
:100DC00080E0480781E0580730F490E1E92EF12CEB
:100DD000012D112D05C088E1E82EF12C012D112DDA
:100DE00080E290E0A0E0B0E08E199F09A00BB10B6B
:100DF00004C05695479537952795EA94D2F7F9019F
:100E0000E457FF4F2081821B9109A109B1091F916D
:100E10000F91FF90EF9008959F92AF92BF92CF9263
:100E2000DF92EF92FF920F931F93EE24FF2487012E
:100E3000FC012481358146815781918080818230F7
:100E400010F44061A2C0843009F49BC0823029F4C0
:100E500020E030E040E050E005C0211531054105BB
:100E6000510519F4E0E0F0E092C0828193816FEFC8
:100E7000823896070CF05AC062E87FEF681B790B46
:100E80006A3171052CF020E030E040E050E02AC0EB
:100E9000AA24BB24650181E090E0A0E0B0E0062E2A
:100EA00004C0880F991FAA1FBB1F0A94D2F701978D
:100EB000A109B10982239323A423B5230097A10597
:100EC000B10529F071E0A72EB12CC12CD12C04C0A2
:100ED00056954795379527956A95D2F72A293B2944
:100EE0004C295D29DA01C9018F779070A070B0702C
:100EF00080349105A105B10539F427FF09C0205CB4
:100F00003F4F4F4F5F4F04C0215C3F4F4F4F5F4FEC
:100F100080E090E0203060E0360760E0460760E463
:100F2000560710F081E090E0FC0123C08038910565
:100F300044F5FC01E158FF4FDA01C9018F77907049
:100F4000A070B07080349105A105B10539F427FF78
:100F500009C0205C3F4F4F4F5F4F04C0215C3F4FA3
:100F60004F4F5F4F57FF05C05695479537952795CB
:100F7000319687E056954795379527958A95D1F70D
:100F800006C020E030E040E050E0EFEFF0E0E22E7D
:100F9000F32E942F9F77802F8078892B9E2F979503
:100FA000992797958F77082F092B9E2F9695812F3C
:100FB0008078892B9794992497948F77182F1929E3
:100FC000C801B7011F910F91FF90EF90DF90CF9074
:100FD000BF90AF909F900895CF93DF93FC01DB010A
:100FE000208131819281492F4F7750E0991F9927B5
:100FF000991F8381E82FEE0FE92B6E2F70E0881F79
:101000008827881FED018983EE2371F521153105AD
:101010004105510511F482E02FC06E577040FD016B
:101020007383628367E0220F331F441F551F6A9545
:10103000D1F783E08C930AC0220F331F441F551F42
:10104000ED018A819B8101979B838A832030E0E0B8
:101050003E07E0E04E07E0E45E0770F3ED012C830D
:101060003D834E835F8325C0EF3F79F42115310521
:101070004105510519F484E08C931BC044FF03C063
:1010800081E08C9311C01C920FC06F577040ED012E
:101090007B836A8383E08C9387E0220F331F441F96
:1010A000551F8A95D1F75064FD012483358346830B
:1010B0005783DF91CF910895CF93DF93DC01FB013C
:1010C0009C91923008F446C08081823008F442C07E
:1010D000943049F4ED016981843079F5818190E0A3
:1010E000861B91093CC0843021F0923031F482306B
:1010F000A1F18181882371F52AC0ED0169818230D7
:10110000E1F081816817C9F4ED012A813B81828178
:101110009381821793078CF028173907B4F0ED01FB
:101120008C819D81AE81BF8124813581468157812B
:10113000281739074A075B0718F4662341F40AC0E9
:1011400082179307A407B50740F4662319F48FEFBD
:101150009FEF05C081E090E002C080E090E0DF9169
:10116000CF910895FB019F01E8944230BCF04532D5
:10117000ACF44A3029F497FB1EF4909581959F4F6B
:10118000642F77273DD0805D8A330CF0895D819391
:10119000CB010097A9F716F45DE251931082C901C3
:1011A00000C0DC01FC01672F71917723E1F73297D2
:1011B00004C07C916D9370836291AE17BF07C8F332
:1011C0000895991B79E004C0991F961708F0961BA3
:1011D000881F7A95C9F78095089597FB092E0726F1
:1011E0000AD077FD04D00CD006D000201AF47095F8
:1011F00061957F4F0895F6F7909581959F4F0895DB
:10120000AA1BBB1B51E107C0AA1FBB1FA617B7072C
:1012100010F0A61BB70B881F991F5A95A9F7809548
:101220009095BC01CD0108952F923F924F925F920D
:101230006F927F928F929F92AF92BF92CF92DF92E6
:10124000EF92FF920F931F93CF93DF93CDB7DEB74B
:10125000CA1BDB0B0FB6F894DEBF0FBECDBF0994DF
:101260002A88398848885F846E847D848C849B8436
:10127000AA84B984C884DF80EE80FD800C811B8144
:10128000AA81B981CE0FD11D0FB6F894DEBF0FBE73
:08129000CDBFED010895FFCF71
:00000001FF
